:020000040800F2
:1000000018100020A1020008AF4D0008154200089A
:10001000AD4D0008552200081568000800000000DA
:10002000000000000000000000000000394E000841
:100030002123000800000000B14D00083B4E0008DD
:10004000BB020008BB020008BB020008BB0200089C
:10005000BB020008BB020008BB020008BB0200088C
:10006000BB020008BB020008BB020008BB0200087C
:10007000BB020008BB020008BB020008BB0200086C
:10008000BB020008BB020008BB020008BB0200085C
:10009000BB020008BB020008BB020008BB0200084C
:1000A000BB020008F14E0008E54E0008BB02000844
:1000B000BB020008BB020008BB020008BB0200082C
:1000C000BB020008BB020008BB020008BB0200081C
:1000D000BB020008195C0008BB020008BB02000854
:1000E000BB020008BB020008BB020008BB020008FC
:1000F000BB020008BB020008BB020008BB020008EC
:10010000BB020008BB020008BB020008BB020008DB
:10011000BB020008BB020008BB020008BB020008CB
:10012000BB020008BB02000859220008BB020008FD
:10013000BB020008BB020008BB020008BB020008AB
:10014000BB020008BB020008BB020008BB0200089B
:10015000BB020008BB02000871220008BB020008B5
:10016000BB020008BB020008BB020008BB0200087B
:10017000BB020008BB020008BB0200080000000030
:10018000BB020008BB02000800F002F800F079F89A
:100190000AA090E8000C82448344AAF10107DA45E2
:1001A00001D100F06EF8AFF2090EBAE80F0013F0BB
:1001B000010F18BFFB1A43F0010318474C970000CA
:1001C0006C9700000A444FF0000C10F8013B13F04C
:1001D000070408BF10F8014B1D1108BF10F8015BA0
:1001E000641E05D010F8016B641E01F8016BF9D193
:1001F00013F0080F1EBF10F8014BAD1C0C1B09D1EA
:100200006D1E58BF01F801CBFAD505E014F8016B5B
:1002100001F8016B6D1EF9D59142D6D370470000ED
:100220000023002400250026103A28BF78C1FBD8FF
:10023000520728BF30C148BF0B607047662907F0DE
:10024000C685642900F07281732900F0A887002018
:1002500070471FB507F0B1FD9DE8030000F0BEFC3C
:1002600001F0B0F804000020002107F04FF8401C16
:1002700060600020002107F05FF8E0601FBD10B54E
:1002800010BD01F09DFB1146FFF7E3FF06F0DCFF18
:1002900001F0BBFB03B4FFF7F2FF03BC01F0ECFB82
:1002A0000948804709480047FEE7FEE7FEE7FEE70A
:1002B000FEE7FEE7FEE7FEE7FEE7FEE70448054946
:1002C000054A064B70470000D54E0008890100081A
:1002D000180A002018100020180C0020180C00200C
:1002E00070B5064600F05AFC056806F10B0020F0D8
:1002F0000704B4429CBF002070BD2B466A68BAB1A7
:100300001068A04210D304F1080188423CBF506835
:10031000586007D35168101941601168091B0160CA
:1003200058601460101D70BD13465268002AE7D152
:100330002146284600F03EFC0028DED170BD70B595
:100340000446051F00F02AFC0068002C14BF446816
:1003500070BD002C18BFAC423CBF20466468F8D387
:1003600001680A18AA4218BF456003D12A680546E9
:100370001144016028684119A1421CBF6C6070BD26
:100380006168696021680844286070BD53EA020C06
:1003900000F069802DE9F04B4FF00006002B1FBFE5
:1003A000B3FA83F503FA05F424FA05F65E4012BFAA
:1003B0001643B2FA82F502FA05F4C5F120051EBF14
:1003C00022FA05FC44EA0C04203556EA044C4FEAB4
:1003D000144418BF641C4FF000084FF0000990420D
:1003E00071EB030C39D3002919BFB1FA81F701FA77
:1003F00007F6B0FA80F700FA07F6C7F120071EBF2C
:1004000020FA07FC46EA0C062037B6FBF4FCA7EB03
:100410000507103F07F01F0BCBF120060CFA0BFB72
:100420002CFA06F644BFB3460026202FA4BF5E4632
:100430004FF0000B5BEA060C08BF4FF0010B19EB05
:100440000B09ABFB027C48EB0608C01B06FB02CC89
:100450000BFB03CC71EB0C01C1E70B460246414696
:100460004846BDE8F08B13B54FF000004FF0000197
:10047000AFF30080BDE81C40704700000FB41CB50E
:10048000074B06AA7B4469460090059800F055FE8C
:100490000020694600F064FE1CBC5DF814FB0000FF
:1004A000D90C00000FB41CB50C0007AA009001D0B5
:1004B0002044401E074B7B4469460190069800F09B
:1004C0003CFE002C03D06946002000F049FE1CBC15
:1004D0005DF814FBB10C000070B50C460546012A0E
:1004E00005D02878800600D5EA69002302E00123C0
:1004F00005E05B1C934202D2E05C0028F9D1A869B8
:10050000E618C01AA861286A184428622846AFF382
:10051000008004E0D5E9012114F8010B9047B442B2
:10052000F8D32846AFF3008070BD00002DE9F041FC
:100530000646002410687529314616A510D0AFF381
:100540000080002802DA404213A507E031688A07DC
:1005500001D512A502E0490704D511A5012401E047
:10056000AFF3008000210A2206F1240709E0B0FB66
:10057000F2FCB0FBF2F302FB1C003030785418465A
:10058000491C0028F3D123462A463046BDE8F041F5
:1005900000F065BB000000002D0000002B000000F3
:1005A000200000002DE9F0474FF0000A894604467C
:1005B000C0F820A02046E1688847002876D025288A
:1005C00006D0D4E901219047206A401C2062F1E75F
:1005D000E168204600258847C4F81CA0064600278D
:1005E000C4F818A02A2E09D0304606F019FE38B3F8
:1005F00004EB8708303EC8F8186019E059F8041B6E
:10060000204604EB87029161E1688847012F064686
:1006100018D1E069002820DA25F020051DE0D8F87F
:10062000180000EB800006EB40003038C8F81800D6
:100630002046E1688847064606F0F2FD0028EED124
:10064000012F0AD02E2E08D12046E16888477F1C52
:100650000646022F45F02005C4DBA069002803DA16
:10066000404245F00105A061E80701D025F01005E2
:10067000B6B1A6F14100192802D8203645F400652C
:100680004A463146204625604D46FFF7D7FD58B112
:10069000012806D0ED1D25F0070000F1080989E7C3
:1006A00004E005F1040985E730468AE7206ABDE8E1
:1006B000F08700000FB400B58DB010A9099000912B
:1006C0000B904FF0FF300A9000200C9006487844C1
:1006D0000690064878446A4607900F9909A800F0EA
:1006E00077FD0DB05DF814FB1F0B0000370B000009
:1006F0002DE9FF5F1D464FF0FF3B91464FF000088C
:100700005F46D5E90146A96901987F1C8847296A97
:10071000824688470028F6D1BAF1FF3F0CD0002E60
:1007200024F4C06419DD600614D5BAF12B0F09D08A
:10073000BAF12D0F0ED103E0584604B0BDE8F09F8A
:1007400044F48064A96901987F1C8847761E82461C
:10075000002E02DDBAF1300F03D0B9F1000F26D020
:1007600032E0A969761E01987F1C44F40074884722
:10077000002E824605DDBAF1780F06D0BAF1580F87
:1007800003D0B9F1000F10D01EE0B9F1000F02D074
:10079000B9F1100F18D1A969761E01987F1C24F4B5
:1007A000007488478246102002E0082000E00A20FA
:1007B000814609E0A96908FB0908761E01987F1C9B
:1007C00044F4007488478246002E05DD49465046B1
:1007D00000F0E9FC0028EDDAE96901988847A005F6
:1007E00002D46FF00100A8E7E00725D1600613D519
:1007F000600502D5C8F1000000E0404629680A1DE6
:100800002A600968220501D5087015E0220701D584
:10081000088011E008600FE02868011D2960006869
:10082000210502D580F8008006E0210702D5A0F856
:10083000008001E0C0F8008038467EE72DE9F047EF
:1008400091460F4680460446002614F8015B2DB100
:1008500000F09CF90068405DC007F6D12B2D02D056
:100860002D2D18D0641E4A463946204600F0E0FC83
:1008700027B13968A14201D1C7F800804FF00204C6
:1008800071050BD54042002803DD00F08BF90460B0
:10089000A007BDE8F08746F48066E4E70028F8DAB0
:1008A00000F080F904606FF00040F2E7014A00F0C8
:1008B0000FBD00006C04002040EA0103024630B581
:1008C0009B0710D14FF0013400E008C208C91D1B7E
:1008D0009D4315EAC41FF8D013F0FF0102F8011B75
:1008E0000DD01B0AF8E711F8013B002B02F8013B81
:1008F00005D011F8013B002B02F8013BF3D130BDCC
:1009000010B5431C02E010F8011B71B18107FAD148
:100910004FF0013202C88C1A8C4314EAC211F9D08C
:10092000C01A0A0603D0C01E10BDC01A10BD0A04AA
:1009300001D0801E10BD0902FCD0401E10BD40EA4F
:10094000010370B59B072ED14FF00136042A2AD33C
:1009500008C810C99D1B9D43121F15EAC61517D064
:10096000D8B2E1B2401A50EA056110D198B2A1B2F2
:10097000401A50EA05410AD123F07F4024F07F411C
:10098000401A50EA052102D1180EA0EB146070BD88
:10099000A342DBD018BA21BA884201D9012070BD28
:1009A0004FF0FF3070BD0AB9002070BD10F8013B58
:1009B00011F8014B63B1A3420AD1521E08D010F8BE
:1009C000013B11F8014B1BB1A34201D1521EEDD1E5
:1009D000181B70BD032A40F2308010F0030C00F0A9
:1009E000158011F8013BBCF1020F624498BF11F869
:1009F00001CB00F8013B38BF11F8013BA2F1040222
:100A000098BF00F801CB38BF00F8013B11F0030399
:100A100000F08084083AC0F0088051F8043B083A9E
:100A200051F804CBA0E80810F5E7121D5CBF51F89F
:100A3000043B40F8043BAFF30080D20724BF11F819
:100A4000013B11F801CB48BF11F8012B24BF00F87E
:100A5000013B00F801CB48BF00F8012B70474FF075
:100A6000000200B5134694469646203922BFA0E8FE
:100A70000C50A0E80C50B1F12001BFF4F7AF09070A
:100A800028BFA0E80C5048BF0CC05DF804EB8900FB
:100A900028BF40F8042B08BF704748BF20F8022B3E
:100AA00011F0804F18BF00F8012B704710B50446B5
:100AB00010F0030F08BF11F0030F40F015804FF046
:100AC000013E121FC0F20E8051F8043BA3EB0E0C46
:100AD0002CEA030C1CEACE1C08BF40F8043BF0D003
:100AE000A1F1040102F10402521E08DB11F8013BDE
:100AF000002B00F8013BF7D1114600F03DFC2046E9
:100B000010BD00004FF0013C50F8042B51F8043B9D
:100B10009A4221D1A2EB0C03934313EACC1317D1D1
:100B200050F8042B51F8043B9A4215D1A2EB0C0368
:100B3000934313EACC130BD150F8042B51F8043B28
:100B40009A4209D1A2EB0C03934313EACC13DBD0F6
:100B50004FF00000704700BFD01A01BAB1FA81F11E
:100B600001F0180122FA01F0CB40C1F12001DBB203
:100B7000C0B2C01A2CFA01F3D11A914311EAC31181
:100B8000E6D17047704770477047000010B500F01D
:100B900019FC001D10BD00BF7567000000487047BC
:100BA000BC09002000487047B40900207047704716
:100BB0007047704738B504460A4600206946AFF3CF
:100BC0000080002808BF38BD02460099204600F08A
:100BD000FDFB012038BD012000F0CCBEF8B5AFF31D
:100BE0000080054600200C46102000BF0646A819CC
:100BF000A0420DD9324669460020AFF300800700BD
:100C000008BF00F0B7FE0098A04218BF0546C419FF
:100C1000FFF7C4FF05600746F01D20F007004619E6
:100C2000284600F00AF8B44208BFF8BDA21B3146BE
:100C30003868BDE8F84000F0C9BB00210160C0E998
:100C4000011070471020704710B5FFF7ABFF006828
:100C500010BD10B50446FFF7A5FF046010BD2DE9D7
:100C6000F0470D4699469246044600F12408016873
:100C7000880604D5E06921F01001216000E0012020
:100C8000A84201DD471B00E00027A1697A1902EBA9
:100C90000900081AA0612078C00602D42046AFF3EC
:100CA0000080002608E0D4E901211AF806009047E8
:100CB000206A401C761C20624E45F4DB2078C0067A
:100CC0000AD52046AFF3008006E0D4E901213020A8
:100CD0009047206A401C2062381EA7F10107F4DC0F
:100CE00007E0D4E9012118F805009047206A401C6C
:100CF0002062281EA5F10105F3DC2046AFF3008039
:100D00002078000602D50220BDE8F0870120FBE72D
:100D100070472DE9FF4F0C461E464FF0FF378BB052
:100D2000D2E90001DDF860800A908A46C1F30A55D5
:100D300005B93D46002108464FF00000BAF1000F0A
:100D400000F4400005DA00EB80004FF4400101EAB6
:100D500050004FEA9059B9F1010F00DDB9460A98E9
:100D600050EA4A000ED044F61050A5F2FF35454334
:100D70002F14B8F1000F1ED07542291E1EDDC9F1D7
:100D800000021CE0B8F1010F4FF0000001D030214B
:100D900003E0F24305E02154401CB042FBDB304647
:100DA0000022002121540B99C1F80880C1E90020DC
:100DB0000FB0BDE8F08FBD1B6D1CDEE74A4600DAC0
:100DC000694206A800F064FD06AB93E8070003AB98
:100DD00083E8070050460A9900F074FE8DE807008A
:100DE000A0F500501F3800900398002D0ADD42F254
:100DF0001F014A460844002303A90390684601F0F6
:100E0000DDF809E0A0F500504A461F38002303A989
:100E10000390684601F0E7F88DE807000004000C35
:100E200003D04FF0FF30410800E01046B8F1000F4A
:100E300003D00022009215461EE0751E05D400F076
:100E4000DFFA303262556D1EF9D5B34601220843F0
:100E500002D000227F1C04E02078302801D100223B
:100E60007F1E002A099784D01DE0112D07DA00F0BB
:100E7000C7FA303262556D1C50EA0102F5D10843C1
:100E800002D00098C8B10EE00021681E05E0235C86
:100E9000625C63542254401E491C8142F7DBAB461E
:100EA000A81B401E0990002004F80B000B98099A1B
:100EB000C0F80880C0E9002B7AE711264FF000083F
:100EC00057E72DE9F04F88460446D21D22F007016E
:100ED00091B0D1E90001CDE90A0105F09CFC024680
:100EE0000B98C00F01D02D2007E02068810701D5A5
:100EF0002B2002E0202101EAC000032A099001D042
:100F0000072A05DB03464146204600F0C7FA0BE1FD
:100F10002078800601D5E06900E00620B8F1650F71
:100F2000814606D0B8F1660F18D0B8F1670F70D1BE
:100F300031E00020B9F1110F009001DB112301E035
:100F400009F101030AAA01A90CA8FFF7E2FEDDE9F5
:100F50000C70002609F10105834647E001204B464D
:100F600000904FF000470AAA01A90CA8FFF7D1FE94
:100F7000DDE90DB00C995D46002610B909F10100BC
:100F80000D18B9EB050003D4C0F1FF3609F10105D6
:100F9000A5EB09002BE0B9F1010F01DA4FF00109CF
:100FA0000020B9F1110F0090484601DD112300E047
:100FB00003460AAA01A90CA8FFF7ABFEDDE90C70F5
:100FC0004D4600268346207800070AD4AB4500DA58
:100FD0005D4601A8012D04DD411911F8011C3029DD
:100FE00007D04F4502DA17F1040F04DA01208246D8
:100FF0000FE06D1EEEE7002F02DCED1B3E4403E028
:10100000781CA84200DD7D1CB81B00F1010A4FF0DE
:1010100000472078000703D4AA4501DB4FF0FF3AD0
:101020000021B7F1004F0DF143088DF8431024D093
:1010300002202B23002F01DA7F422D230A21021EDA
:10104000A0F1010000DC5FB197FBF1FC97FBF1F22E
:1010500001FB1C7C17460CF1300C08F801CDEEE7C3
:10106000A8F1010003702188090501D5452100E0A0
:101070006521A0F1010800F8011C09980FA9A1EB56
:101080000807FF1D00B10120411901EBEA70A169B9
:101090003844081A401EA0612078C00602D42046B9
:1010A000AFF30080099828B1D4E901219047206A64
:1010B000401C20622078C00622D52046AFF3008075
:1010C0001EE0002E04DBB34502DD01A8805D00E0D8
:1010D0003020D4E901219047206A401C2062761C10
:1010E000AAF101005FEA000A0AD100F06BF9C068BA
:1010F0000168405CD4E901219047206A401C2062CD
:10110000281EA5F10105DCDC07E0D4E9012118F86F
:10111000010B9047206A401C2062381EA7F101078E
:10112000F3DC2046AFF30080032011B041E600005D
:1011300001694A1C02610878704700B58FB0CDE99B
:1011400001310021059105497944CDE9031011468B
:101150006846FFF727FA0FB000BD0000E5FFFFFF6C
:101160000A6802F8010B0A607047D1E900239A422D
:1011700002D2531C0B601070704710B5436913B155
:10118000AFF3008001E0FFF7A7F9012010BD12784E
:1011900000F124010A7000224A700122EDE7116873
:1011A0004FF0FF32E9E73A2800D2303820F0200231
:1011B000412A01D3A2F13700884201D34FF0FF301A
:1011C00070470000026811441378016018467047A8
:1011D000D160054979445161044979441162002183
:1011E0001161114600F09AB9EDFFFFFFAD0200005A
:1011F000426842B1016811F8013B23B1521EC0E9B7
:101200000012184670470121C160881E704742686D
:101210005AB1C368016843B983688B4205D0491E3F
:10122000521CC0E90012002070474FF0FF30704799
:101230002DE9F05F824615468B4600270AF101042E
:10124000B9460078302801D09DB113E014F8010BA5
:101250000127782803D0582801D045B10AE00DB104
:10126000102D07D1002714F8010B102502E00825E6
:1012700000E00A250026B0460EE005FB080005FB4D
:1012800006F101271FFA80F801EB1046B6F5803F02
:1012900000D3B94614F8010B2946FFF784FF002854
:1012A000EBDABBF1000F05D00FB1641E00E054462D
:1012B000CBF80040B9F1000F06D0FFF773FC022114
:1012C0000160C81EBDE8F09F48EA0640FAE700004A
:1012D0002DE9F04115460E46040002D12C6804B9F0
:1012E0000BA4204600F05DFB0444207870B1274633
:1012F0003146384600F045FB0444207810B1002008
:1013000004F8010B38462C60BDE8F0810027F9E7AE
:101310000000000010B5203AC0F00B80B1E8185072
:10132000203AA0E81850B1E81850A0E81850BFF4CF
:10133000F5AF5FEA027C24BFB1E81850A0E818506E
:1013400044BF18C918C0BDE810405FEA827C24BFC2
:1013500051F8043B40F8043B08BF7047D20728BF50
:1013600031F8023B48BF11F8012B28BF20F8023B9F
:1013700048BF00F8012B70474FF000020429C0F06D
:10138000128010F0030C3FF46CABCCF1040CBCF1F8
:10139000020F18BF00F8012BA8BF20F8022BA1EB09
:1013A0000C01FFF75EBB5FEAC17C24BF00F8012B94
:1013B00000F8012B48BF00F8012B70470048704728
:1013C000B409002000487047D40900200346406853
:1013D0008C46002818BF88423CBF03464068F8D3BB
:1013E00018681844884207D00CF1030020F0070069
:1013F000001D411A521A0146081D0A60FEF79FBFE0
:1014000030B5B0F10A024FEA900E71F100034EEAD6
:10141000817EB0EB0E0061EB91014FEA101E4EEAA7
:10142000017E10EB0E0041EB11114FEA102E4EEA37
:10143000016E10EB0E0041EB11214FEA104E4EEA07
:10144000014E10EB0E0041EB1141401841F100013B
:101450004FEAD00040EA41704FEAD10110EB80051D
:101460004FEA810444EA907444EB01046D1944EBA3
:101470000404521BA3414FF0000348BF0A3200D5B9
:1014800030BD401C41F1000130BD10B50446FFF7EE
:101490007DFB0068005D00F0010010BD2DE9F0410A
:1014A0001F46044603260168072A01F4006004DB96
:1014B00008B116A505E016A503E008B115A500E0E2
:1014C00015A521F010002060A069C01EA0610FB119
:1014D000401EA0612046AFF300804FB1D4E9012146
:1014E00038469047206A401C2062C01C206206E0FB
:1014F000206AFAE7D4E9012115F8010B9047761E1E
:10150000F8D22046AFF30080BDE8F0814E414E0096
:101510006E616E00494E4600696E66002DE9F34F1C
:101520004FF0000A0C4656468DB001200C9001F198
:101530000C000B9062690B9801219047051E2DD07D
:10154000252D2CD0216A8847C0B162690B980121F2
:101550009047216A88470028F7D16269411E0B989D
:10156000904700E0761CA1690D988847216A88475A
:101570000028F7D1E1690D988847DBE7A1690D984C
:101580008847A842074601D1761CD3E7E1690D9848
:1015900088477F1C02D1BAF1000F6FD06BE16269FE
:1015A0000B9800273D46394690472A2804D16269A6
:1015B0000B98012190470125DFF8D08262690B98D2
:1015C00001219047A0F130010A290AD24745E5DC04
:1015D00007EB870100EB4107303FDFD445F01005F2
:1015E000ECE7E90601D46FF000476C280AD04C28DC
:1015F00014D0682815D06A280DD074281CD07A28F9
:101600001AD01DE062690B98012190476C2802D026
:1016100045F0040514E045F002050DE045F0200515
:101620000AE062690B9801219047682802D045F0D2
:10163000080505E045F4006562690B9801219047B3
:10164000C4E9015765283DD019DC58287AD00CDC54
:10165000452837D004DC252826D041289ED131E00A
:1016600046282FD0472899D12CE05B2877D06128D5
:1016700028D063287CD0642823D15AE0F6E06F2874
:1016800048D008DC66281DD067281BD0692821D0E7
:101690006E2816D127E0702845D0732868D07528A9
:1016A00047D078280DD14DE0A1690D9888472528AD
:1016B00005463FF469AFE1690D9888476D1C3FF41A
:1016C0006AAFD8E00D9923466A466FF00100AFF388
:1016D0000080C5E045F0400023464FF00002606006
:1016E000A80736D43EE0E8077FF447AF2068011D25
:1016F00021600068290501D506701BE7290701D57F
:10170000068017E7A90703D5F117C0E9006111E7C3
:1017100006600FE745F0400023464FF00802606086
:10172000A80716D41EE040F60E0125EA010060600D
:1017300016E045F0400023464FF00A026060A8071B
:1017400007D40FE045F040006060A80708D52346A5
:1017500010220D996FF00100AFF3008080E007E0E8
:10176000102223460D996FF00100FEF7C1FF77E0CC
:101770004FF0000963284F46C8464B46CB4602D07F
:101780005B2806D038E0E80601D40120A0600127DC
:1017900032E06269D4F80CB00B98012190475E28C2
:1017A00007D14FF0010949466269D4F80CB00B9893
:1017B0009047216939B900210A4603AB43F821203B
:1017C000491C0829FADBD8B3216949B308F101089B
:1017D00062690B98012190475D28F4D1B9F1000F9F
:1017E00009D0002003A951F82020D24341F820203D
:1017F000401C0828F7DB03AB2069002820794FEA5A
:1018000040701ED05B462246CDF80080CDE901979E
:101810000D9900286FF0010020DAAFF300801FE07F
:10182000C11703AA00EBD1614B1121F01F0102EB9C
:101830008302411A13680120884003431360C7E7FD
:1018400019E00D99224600286FF00100009702DA96
:10185000AFF3008004E0AFF3008001E0AFF300805D
:1018600000280ADA401C06D10C9820B14FF0FF3056
:101870000FB0BDE8F08F5046FAE7E90701D10AF151
:10188000010A064400200C9054E60000CCCCCC0C9D
:101890002DE9F047814616468AB0354878440DC890
:1018A0008DE80D0032487844801C03AC0DC884E8F4
:1018B0000D0041F69B300844372190FBF1F290FB7C
:1018C000F1F5A5F1800501FB12041B3C02D5644231
:1018D000012000E00020DFF898A080460027FA44AD
:1018E000AAF1BE0A0EE0E0070AD03246684607EBCE
:1018F000470101230AEB810100F075FB8DE8070029
:1019000064107F1C002CEED1194F7F44AE3F19E0CC
:10191000E80715D007EB04100DF1180A90E80E0047
:101920008AE80E00C068F04201D19819089032464A
:10193000012306A903A800F056FB03AB83E80700C8
:101940006D10641C002DE3D14FF00103324669464F
:10195000B8F1000F03A802D000F030FB01E000F066
:1019600042FBC9E90001C9F808200AB0BDE8F087C8
:10197000647F000010B500F057F8BDE8104000F09B
:101980004DB830B503461D781DB10A4603E0AC42A0
:1019900001D1181A30BD12F8014B002CF7D15B1C95
:1019A000F1E730B503461D783DB10A4612F8014B08
:1019B0001CB1AC42FAD15B1CF5E7181A30BD704778
:1019C0007546FFF7FBFCAE4605006946534620F01E
:1019D0000700854618B020B5FEF770FCBDE8204032
:1019E0004FF000064FF000074FF000084FF0000BDB
:1019F00021F00701AC46ACE8C009ACE8C009ACE88E
:101A0000C009ACE8C0098D46704710B50446AFF375
:101A100000802046BDE81040FEF73CBC002801D005
:101A200000F02AB87047000010B5012805D0002149
:101A300003A000F027F8012010BD09A1F8E700007D
:101A400053494752544D454D3A204F7574206F66A7
:101A50002068656170206D656D6F7279000000000F
:101A60003A2048656170206D656D6F727920636FF3
:101A7000727275707465640001491820ABBEFEE790
:101A80002600020070B505460C460A2000E06D1CD9
:101A900000F011F835B128780028F8D102E0641C74
:101AA00000F009F814B120780028F8D1BDE87040A2
:101AB0000A20AFF3008008B569468DF800000320C6
:101AC000ABBE08BD5FEA400C08BF91F0000F4FEAC3
:101AD0008C234FEAC12243EA51514FEA1C5018BFF0
:101AE00000F5F0404FEA300018BF41F000415FEAD6
:101AF0006C5C00F02980BCF1FF3F08BF40F08040E3
:101B00007047130C06BF12044FF0100C4FF0000C7E
:101B1000130E04BF12020CF1080C130F04BF1201C4
:101B20000CF1040C930F04BF92000CF1020CD30FC4
:101B300004BF52000CF1010C11464FF00002A0F15D
:101B40001F00A0EB0C00704711F0004F08BF70475A
:101B500031F000413FF4D5AF0B0C06BF09044FF044
:101B6000100C4FF0000C0B0E04BF09020CF1080C16
:101B70000B0F04BF09010CF1040C8B0F04BF89008B
:101B80000CF1020CCB0F04BF49000CF1010CCCF19D
:101B90002003A0EB0C0022FA03F302FA0CF241EA54
:101BA000030100F10100704720F07F4C80EA030040
:101BB00023F07F47ACEB070303F57C5300F00040B4
:101BC00003F1FF032DE980494FEA154B09B44FEAB1
:101BD000144325EA0B4E24EA03480FF2042606EBD1
:101BE000132749083E785FEA320203FB0667C7F510
:101BF000000707FB06F64FEA54374FEAD64606F1D0
:101C0000020607FB066CCCF1005C4FEA1C472CEA8D
:101C1000074C07FB06F40CFB06F504EB15464FEAF0
:101C2000961634BF00204FF000404FEAD13706FB34
:101C300007FC4FEA1C4C0CFB0BF7D21B03FB0CF709
:101C400061EB07010CFB0EF7B0EB074072EB17429C
:101C50000CFB08F734BFA2EB0742B2EB074261EB83
:101C600017414FEA0C444FEA910706FB07FC4FEA85
:101C70001C4C0CFB0BF7B0EBC74072EB573203FB6D
:101C80000CF734BFA2EBC742B2EBC74261EB57314E
:101C90000CFB0EF7B0EBC70072EB57720CFB08F7AA
:101CA00034BFA2EBC702B2EBC70261EB5771039FCF
:101CB0004FEA816141EA921104EBCC044FEAD1373B
:101CC0004FEA826206FB07FC42EA90124FEA80600C
:101CD0004FEA1C4C0CFB0BF7D21B03FB0CF761EB20
:101CE00007010CFB0EF7B0EB074072EB17420CFB41
:101CF00008F734BFA2EB0742B2EB074261EB174192
:101D00004FEA8C554FEA910704EB9C2406FB07FC35
:101D10004FEA1C4C0CFB0BF7B0EBC74072EB573291
:101D200003FB0CF734BFA2EBC742B2EBC74261EB37
:101D300057310CFB0EF7B0EBC70072EB57720CFB80
:101D400008F734BFA2EBC702B2EBC70261EB5771D1
:101D500015EB4C254FEA816141EA92114FEA82620C
:101D60004FEAD13742EA901206FB07FC44F1000427
:101D70004FEA80604FEA1C4C0CFB0BF7D21B03FBB5
:101D80000CF761EB07010CFB0EF7B0EB074072EBB1
:101D900017420CFB08F734BFA2EB0742B2EB074235
:101DA00061EB174115EB1C154FEA813141EA924175
:101DB0004FEA823242EA90424FEA80304FEA0C7694
:101DC00044F1000448EA03434EEA0B484FF0000E8A
:101DD000B2EB080C71EB030724BF624639464EEBA9
:101DE0000E0E4FF0000B0018524149414BEB0B0B0C
:101DF000B2EB080C71EB03077BF1000B24BF6246CA
:101E000039464EEB0E0E4FF0000B0018524149417F
:101E10004BEB0B0BB2EB080C71EB03077BF1000BE8
:101E200024BF624639464EEB0E0E51EA020718BF38
:101E300046F0010616EB0E7655F1000254F1000152
:101E400003D5BDE88901BDE80088BDE88901BDE88A
:101E50000048B619524141EB0101A3F1010370475B
:101E600080807F7E7D7C7B7A7978777676757473D7
:101E7000727171706F6E6E6D6C6C6B6A6A69686896
:101E8000676666656464636362616160605F5F5E2C
:101E90005E5D5D5C5C5B5B5A5A59595858575756A2
:101EA0005655555554545353525252515150505007
:101EB0004F4F4F4E4E4D4D4D4C4C4C4B4B4B4A4A59
:101EC0004A4949494848484747474746464645459D
:101ED00045444444444343434342424242414141D6
:101EE000002B9C4630D477002BD01CB54FEA370727
:101EF00003B44FF010004FF01001BAF1000F06D0FC
:101F0000BCF1000FDCBF40F0080040F008014FF0CA
:101F100000000FBCBDE810400BF1010BBBF1010F3D
:101F200008BF5FEA170722BF12F1010211F1010198
:101F30004FF0004143F1000300F0004043EA00008D
:101F40007047F9D35708D0E746EA064613F1400F29
:101F50004FEA16461FDD13F1200FDFBF16430A4676
:101F6000002120335B42BED0C3F1200746EA06467B
:101F700002FA07F74FEA164646EA0706C3F12007BA
:101F800022FA03F201FA07F721FA03F14FF00003F6
:101F900042EA0702A7E746EA020646EA06464FEA91
:101FA000164646EA0106BCBF46EA0646360C4FF026
:101FB00000034FF000024FF0000194E72DE9804C40
:101FC0009A46934670B491E8380007C831EA400C4D
:101FD00048BF34EA430C03D5FFF7E6FDFFF780FF67
:101FE000F0BCBDE8008C2DE9804C9A46934670B455
:101FF00091E8380007C810F0804F08BF13F0804FF9
:1020000003D100F005F8FFF76BFFF0BCBDE8008CD2
:1020100020F07F4780EA030023F07F4C07EB0C039E
:10202000A3F57C5300F00040A3F1FE0392F0000FF3
:1020300000F0B38095F0000F00F077802DE90149A2
:102040004FEA11404FEA144621EA004800FB06FC23
:1020500024EA064708FB06F607FB08F800FB07F72B
:1020600018EB06484CEB164C4FEA124B18EB07489E
:102070004FEA15464CEB174022EA0B4E0BFB06FCD1
:1020800025EA06470EFB06F607FB0EFE0BFB07F7DD
:102090001EEB064E4CEB164C4FF000061EEB074EA7
:1020A0004CEB174B18EB0B0840F1000018EB0E0B34
:1020B00058EB000840F100008F1A4FF000013CBFC0
:1020C000C943661B14BFB5EB040C00213CBFC943D8
:1020D000F61B4FEA17444EEA8E0E27EA04454FEAF4
:1020E0001C4704FB07622CEA074C05FB07F70CFBB7
:1020F00005F604FB0CFC16EB074642EB174216EB09
:102100000C4642EB1C421BEB060658EB0202414117
:1021100046EA9E0601D5BDE80189B619524141EB58
:102120000101A3F10103BDE801894FEA14454FEA1B
:10213000114724EA054621EA074C05FB07F406FB94
:1021400007F70CFB06F105FB0CFC11EB074144EB18
:1021500017444FEA124711EB0C4144EB1C4422EAAE
:10216000074C05FB07F206FB07F70CFB06F605FB21
:102170000CFC16EB074642EB174216EB0C4642EB03
:102180001C456A1854F1000148BF7047B619524106
:1021900041EB0101A3F10103704795F0000F37D027
:1021A0004FEA11424FEA144721EA024624EA074C5B
:1021B00002FB07F106FB07F70CFB06F402FB0CFC25
:1021C00014EB074441EB17414FEA154714EB0C445D
:1021D00041EB1C4125EA074C02FB07F506FB07F71C
:1021E0000CFB06F602FB0CFC16EB074645EB17450D
:1021F00016EB0C4645EB1C42121951F1000148BF89
:102200007047B619524141EB0101A3F10103704738
:102210004FEA14454FEA114724EA054621EA074CE4
:1022200005FB07F106FB07F70CFB06F24FF0000673
:1022300005FB0CFC12EB074241EB174112EB0C4281
:1022400051EB1C4148BF7047921841EB0101A3F1CB
:1022500001037047FEE7000010B5044803F0B8F929
:10226000BDE81040014800F02BB90000180900201B
:10227000014800F025B90000B808002001681823C3
:10228000CAB2103AB2FBF3F2054B6FF30901032A0D
:102290009B5CC36500D9091D816508467047000035
:1022A000887E000810B5014600208B698A6A4FF0CD
:1022B000C07453B1B3F5005F15D072B1012A0CD0D0
:1022C000022A0AD0032A09D104E01AB1012A06D051
:1022D000022A03D1C96AC90100D5012010BDC96A0B
:1022E000A142FAD010BD002AF7D0012AF2D0022A6A
:1022F000F3D0032AF3D010BD30B50468256825F467
:1023000080252560046863608368402B036803D0E0
:1023100099600068C26030BD9A600068C16030BDDD
:10232000704772B6FEE7000030B5B3F5804F05D0B8
:102330006FF0704140F82210002030BD8C690B68AE
:102340008D6823434C688989240144EA052423438A
:1023500043EA014150F82230014C23401943E9E798
:102360000000F0CF10B50A6850F8223023F00103C6
:1023700040F822308C68082C23D000234A6822437E
:10238000CC681C430B6922431A434B690E4C1A4319
:10239000CB691A430B6A1A434B6A1A438B6A1A4376
:1023A000CB6A1A430B6B1A438B691343CA6B0968D8
:1023B0001A4350F82130A343134340F82130002042
:1023C00010BD4023DAE700007FFF0F0030B5D1E9F0
:1023D000003443EA04138C688D89240244EA0544DE
:1023E00023430C8A074D00EB820005EB0454234382
:1023F0000C7D6D0105EB0464896923430B43436045
:10240000002030BD0000F0FF2DE9F0410446876D4B
:1024100000F02CFB064694F835000025022806D073
:102420008020606584F834500120BDE8F081206888
:10243000016821F0160101602068416921F08001E6
:102440004161206C08B9A06C20B12068016821F0BE
:10245000080101602068016821F0010101600CE0C1
:1024600000F004FB801B052807D9202060650320AD
:1024700084F8350084F83450D7E720680068C00736
:10248000EED194F85C103F208840B860012084F8B9
:10249000350084F834500020C7E790F83510022941
:1024A00003D08021416501207047052180F8351057
:1024B0000068016821F00101016000207047000000
:1024C0002DE9F84304464FF00009CDF80090634829
:1024D0004FF41651A56D0068B0FBF1F72E6894F823
:1024E0005C10082000FA01F131420FD021680A681F
:1024F00052070BD50A6822F004020A6094F85C10B7
:102500008840A860606D40F00100606594F85C1040
:102510004FF0010808FA01F0304208D021684969FB
:10252000090604D5A860606D40F00200606594F86B
:102530005C1004208840304208D02168096889076F
:1025400004D5A860606D40F00400606594F85C10EC
:1025500010208840304218D021680968090714D536
:10256000A86020680168490304D50068000308D505
:10257000A16C07E00168C90503D4016821F00801D6
:102580000160216C09B12046884794F85C10202036
:102590008840304231D021680968C9062DD5A8602D
:1025A00094F8350005282068016806D0490347D50E
:1025B000006800031DD4616C1CE021F0160101606D
:1025C0002068416921F080014161206C08B9A06C4C
:1025D00020B12068016821F00801016094F85C10C6
:1025E0003F208840A86084F8358084F83490216DBD
:1025F0001FE0E16B09B120468847606D00282BD0B1
:10260000606DC00714D0052084F83500206801688B
:1026100021F0010101600098401C0090B84203D8ED
:1026200020680068C007F6D184F8358084F83490BB
:10263000E16C002910D001B02046BDE8F043084706
:102640000168C905D5D4016821F01001016084F842
:10265000358084F83490CCE7BDE8F883000400208E
:102660002DE9F041044600F001FA06465CB1022073
:1026700084F83500002584F834502068016821F082
:10268000010101600DE00120BDE8F08100F0EEF9EC
:10269000801B052805D920206065032084F83500BB
:1026A000F2E720680068C007F0D12268116820486E
:1026B0000140D4E901031843D4E9033633431843F6
:1026C00063691843A3691843E3691843236A1843ED
:1026D0000843616A042903D1D4E90B131943084361
:1026E000106020684069666A20F0070130460E439A
:1026F000012704280CD1A06A0643E06A40B12046B5
:10270000FFF7D0FD20B14020606584F83570BAE74E
:10271000206846612046FFF7B1FD94F85C203F2118
:1027200091408160656584F835700020ACE7000059
:102730003F8010F02DE9F0410446866D90F834009A
:10274000002501280DD0012084F8340094F835705C
:102750000020012F07D084F8340002252846BDE868
:10276000F0810220FBE7022784F83570606520467F
:10277000FFF7C2FD94F85C103F208840B0602068ED
:10278000016841F016010160206C20B120680168E9
:1027900041F0080101602068016841F00101016019
:1027A000DCE7000070B5044600F060F90546601CE7
:1027B00002D004480078044400F058F9401BA042BD
:1027C000FAD370BDF40300202DE9F04186B0142146
:1027D0006846FEF744F920480168002939D10121F3
:1027E00001601E480024016841F001010160006899
:1027F0004FF4805800F001000C27CDF80080CDE99F
:102800000470032602250396CDE901546946144855
:1028100000F02EF84FF68070CDE9000502AA694657
:1028200082E8D0000F4800F023F84CF23370CDE975
:10283000000502AA694682E8D0000B4800F018F8AB
:1028400002AA694682E8D000CDE90085074800F079
:102850000FF806B0BDE8F081EC03002038380240E4
:102860000014024000100240000C02400018024018
:102870002DE9F84FDFF8BCA10022012503264FF017
:102880000F090AF1040BAAF1040E00BF0B6805FA48
:1028900002F42340A34270D10F7907F00307012F00
:1028A00001D0022F16D187684FEA420806FA08FCC9
:1028B00027EA0C07D1F80CC00CFA08FC4CEA070C0C
:1028C000C0F808C04768A7430C79C4F300149440CB
:1028D0003C4344600C79E443A4070AD0C4684FEA3F
:1028E000420C06FA0CF7BC438F6807FA0CF7274333
:1028F000C7600C7904F00304022C12D1D40800EB59
:10290000840CDCF820405707FF0E09FA07F824EA88
:102910000804D1F8108008FA07F848EA0408CCF84F
:10292000208004684FEA420C06FA0CF7BC430F798A
:1029300007F0030707FA0CF7274307604C6814F405
:10294000403F70D03C4C276847F48047276024689C
:1029500022F0030704F480440094384C07EB040C85
:10296000DCF8084897074FEA177809FA08F7BC43DC
:10297000334FB84202D1002724E054E0314FB8422F
:1029800001D101271EE0304FB84201D1022719E0E2
:102990002E4FB84201D1032714E02D4FB84201D188
:1029A00004270FE02B4FB84201D105270AE02A4F38
:1029B000B84201D1062705E0284FB84201D10727C8
:1029C00000E0082707FA08F72743CCF80878DAF878
:1029D00000405746D1F804C09C435FEACC2C00D598
:1029E0001C433C60DBF800405F46D1F804C09C43C8
:1029F0005FEA8C2C00D51C433C60DEF80040774633
:102A0000D1F804C09C435FEA8C3C00D51C433C6079
:102A1000084F083F3C68D1F804C09C435FEACC3CB7
:102A200000D51C433C60521C102AFFF42FAFBDE8B8
:102A3000F88F0000083C014044380240003001405B
:102A4000000002400004024000080240000C024066
:102A5000001002400014024000180240001C024016
:102A60000AB1816170470904FBE7000001488068F2
:102A700070470000F4030020024881680278114486
:102A800081607047F40300200B4810B5016841F4E1
:102A900000710160016841F480610160016841F4E6
:102AA00080710160032000F06FF80F2000F006F83D
:102AB00000F024F8002010BD003C024070B50D4D20
:102AC00004464FF47A712878B1FBF0F00A4909689E
:102AD000B1FBF0F000F03AFB48B9102C07D200220D
:102AE0002146501E00F030F800206C6070BD0120BF
:102AF00070BD0000F4030020000400200A4808B55F
:102B0000016841F480410160006800F48040009059
:102B10000548001F016841F080510160006800F025
:102B20008050009008BD000044380240002809DBB6
:102B300000F01F02012191404009800000F1E020D7
:102B4000C0F8001170470000F0B40E4B1B680C4633
:102B5000C3F30223C3F10705042D00D90425191D71
:102B6000072901D2002300E0DB1E012606FA05F149
:102B7000491E214099409E40761E16403143F0BCCC
:102B800003F061BE0CED00E0064900F007020868A2
:102B90004FF6FF03184040EA0220034A1043086042
:102BA000704700000CED00E00000FA052DE9F04749
:102BB0000E46050065D0DFF81481D8F80000F7B2A2
:102BC00000F00700B04207D288F80070D8F8000083
:102BD00000F00700B04254D128683D4C810712D55F
:102BE000400703D5206840F4E050206028780007B3
:102BF00003D5206840F4604020602068A96820F078
:102C0000F000084320602878C0072DD0304968685C
:102C10000839012812D0022813D0032811D00968DE
:102C2000890700292DDA216821F003010143216081
:102C3000FFF71CFF814641F2883A0EE009688903DC
:102C4000EFE709688901ECE7FFF710FFA0EB090146
:102C5000514502D90320BDE8F0872068696800F07B
:102C60000C00B0EB810FEFD1D8F80010404601F016
:102C70000701B14207D90770006800F00700B042B1
:102C800001D00120E7E72878400705D52068E968EA
:102C900020F4E050084320602878000706D520681B
:102CA000296920F4604040EAC100206000F038F853
:102CB0002168084AC1F30311515CC8400649086005
:102CC00006480068FFF7FAFE0020C4E7003C024017
:102CD00008380240907E000800040020F80300201D
:102CE0000448054900680968044AC1F38221515C1F
:102CF000C84070470004002008380240A07E000849
:102D00000448054900680968044AC1F34231515C2E
:102D1000C84070470004002008380240A07E000828
:102D2000154810B5006810F00C02144813D041107B
:102D3000042A0FD0082A0ED10F4C241F22682368C2
:102D400002F03F025B0207D52068C0F38810A0FBA9
:102D5000010106E0084610BD2168C1F38811A1FBFE
:102D600000010023FDF712FB2168C1F30141491C5A
:102D70004900B0FBF1F010BD083802400024F40017
:102D80002DE9F84F04006ED02078DFF84C93C0078F
:102D9000A9F104054AD009F104000168C1F38101D9
:102DA000012908D00068C0F3810002280AD1D9F8AF
:102DB0000000400206D52868800337D560680028E7
:102DC000E1D033E06068B0F5803F10D0B0F5A02FBF
:102DD000286810D020F480302860286820F48020F3
:102DE00028606068A8B1FFF741FE06460DE028683C
:102DF00040F48030F4E740F480202860F7E700BF1B
:102E0000FFF734FE801B642873D828688003F7D549
:102E10000CE0FFF72BFE064605E000BFFFF726FE9D
:102E2000801B6428F0D828688003F7D42078DFF866
:102E3000AC8280074FF0000A3ED5A748001D01680C
:102E400011F00C0F08D00068C0F3810002280BD1EC
:102E5000D9F80000400207D42868800716D5E0683A
:102E6000012800D112E033E1E068B8B10120C8F8D0
:102E70000000FFF7FBFD064605E000BFFFF7F6FD8B
:102E8000801B0228C0D828688007F7D528682169E8
:102E900020F0F80040EAC10028600DE0C8F800A06A
:102EA000FFF7E4FD064604E0FFF7E0FD801B022883
:102EB0001FD828688007F7D42078000722D5864FCE
:102EC00087486169703771B101210160FFF7CEFD5C
:102ED000064604E0FFF7CAFD801B022809D83868BF
:102EE0008007F7D50EE0C0F800A0FFF7BFFD06464B
:102EF00005E082E0FFF7BAFD801B02287DD8386824
:102F00008007F7D42078400768D5DFF8CCB10027D8
:102F10000BF13C0BDBF80000C0000BD4DBF8001019
:102F200041F08051CBF80010DBF80000012700F0E1
:102F3000805000906B4E3068C00510D4306840F46B
:102F400080703060FFF792FD009005E0FFF78EFD86
:102F50000099401A022850D83068C005F6D55E4E58
:102F6000A0686C3601280FD00528306810D020F0FA
:102F700001003060306820F004003060A068B8B113
:102F8000FFF774FD00900FE0306840F00100F4E7B7
:102F900040F004003060F7E7FFF768FD0099411A40
:102FA00041F28830814266D830688007F4D50EE05F
:102FB000FFF75CFD009007E0FFF758FD0099411A0C
:102FC00041F28830814256D830688007F4D42FB15E
:102FD000DBF8001021F08051CBF80010A069C8B3D5
:102FE0003D49091D0968C1F3810102294AD002281F
:102FF000504607D0C8F8600000E03CE0FFF736FD1F
:1030000004463BE04746C8F86000FFF72FFD064640
:1030100005E000BFFFF72AFD801B02282BD8286897
:103020008001F7D4D4E907010843A16A2E4A490870
:1030300002EB0141626A41EA8211084394F82C10C4
:1030400040EA0161C9F8001001203866FFF70EFD63
:10305000044606E03EE000BFFFF708FD001B022823
:1030600009D828688001F7D534E000BFFFF7FEFCDF
:10307000001B022802D90320BDE8F88F28688001D0
:10308000F4D427E00128F7D0D9F80000E26900F471
:10309000800191421CD1226A00F03F01914217D178
:1030A00047F6C071626A0140B1EB821F10D1A26A7B
:1030B0004FF0FF3300F4403103EB5202B1EB024F0B
:1030C00006D194F82C1000F07060B0EB016F01D0C5
:1030D0000120D1E70020CFE704380240000047423A
:1030E000800E4742007000400000FFFF70B515469B
:1030F0000E46040003D094F8490010B107E0012007
:1031000070BD002084F84800204600F01DF804F14E
:1031100008012068FFF726F93146A2682068FFF70A
:1031200055F9D4E901022946236BFFF7FDF8216820
:10313000A06851F8202042F0010241F8202001202F
:1031400084F84900002070BDFFF73EBB10B5401E5B
:10315000B0F1807F01D3012010BD4FF0E024606109
:103160000F21601703F06FFB0020A0610720206192
:10317000002010BD7047704710B5040003D094F8CC
:103180003D0010B107E0012010BD002084F83C0094
:10319000204600F01FF8022084F83D00211D206821
:1031A00001F0ACFE012084F8460084F83E0084F86B
:1031B0003F0084F8400084F8410084F8420084F81D
:1031C000430084F8440084F8450084F83D00002062
:1031D00010BD0000F0B587B0044614216846FDF725
:1031E0003EFC3649344F23680024344A1439022502
:1031F00003263348BB421FD1136843F400331360E6
:10320000126802F4003205920A6842F020020A6055
:10321000096801F02001059140210091CDE9015498
:10322000CDE903466946FFF723FB0022114619202A
:10323000FFF78AFC192021E0224FBB4222D11368FC
:1032400043F480231360126802F4802205920A6816
:1032500042F020020A60096801F0200105918021F6
:103260000091CDE90154CDE903466946FFF700FB23
:10327000002211461A20FFF767FC1A20FFF756FCC0
:1032800007B0F0BD0D481049001F8B4207D10168FF
:1032900041F080010160006800F0800009E00B4906
:1032A0008B42EDD1016841F480710160006800F447
:1032B00080700590E4E7000000440140443802407B
:1032C0000014024000480140001C00400020004063
:1032D00090F83D10012901D001207047022180F8AB
:1032E0003D100168CA6842F00102CA6000681149D5
:1032F000884214D0B0F1804F11D00F4988420ED0CF
:103300000E4988420BD00E49884208D00D498842A8
:1033100005D00D49884202D00C49884204D1816809
:1033200001F00701062903D0016841F001010160A5
:1033300000207047000001400004004000080040E9
:10334000000C004000040140004001400018004013
:1033500070472DE9F04104460068C66805694FF0E2
:103360000007A90713D5B10711D5F91E0161012086
:103370002077206880698007204602D0FFF7E8FFA9
:1033800004E000F0B7F8204600F049F92777680715
:1033900016D5700714D521686FF00400086102206B
:1033A00020772068806910F4407F204602D0FFF724
:1033B000CFFF04E000F09EF8204600F030F92777B8
:1033C000280715D5300713D521686FF0080008616C
:1033D000042020772068C0698007204602D0FFF7CC
:1033E000B7FF04E000F086F8204600F018F92777D0
:1033F000E80616D5F00614D521686FF010000861B4
:10340000082020772068C06910F4407F204602D051
:10341000FFF79EFF04E000F06DF8204600F0FFF893
:103420002777E80708D0F00706D021686FF0010081
:103430000861204600F058F9280608D5300606D560
:1034400021686FF0800008612046FFF793FE680650
:1034500008D5700606D521686FF040000861204647
:1034600000F0A0F9A8060AD5B00608D521686FF0CB
:10347000200008612046BDE8F041FFF77CBEBDE8B2
:10348000F081000070B586B0044614216846FDF74F
:10349000E6FA144E25680022134902230924134832
:1034A000B54209D10D6845F020050D60096801F0AD
:1034B0002001059181150BE00D4EB54210D10D682C
:1034C00045F020050D60096801F020010591711596
:1034D0000091CDE90132CDE903246946FFF7C8F92F
:1034E00006B070BD001C004030380240001402409D
:1034F00000200040704770B5044690F83C0000265C
:103500000D4601280FD0012084F83C006AB1042A3E
:103510001DD0082A2FD00C2A3FD00126002084F885
:103520003C00304670BD022070BD206801F05CFD9B
:103530002068816941F0080181612068816921F07A
:1035400004018161206881692A69114311E02068C2
:1035500001F07AFD2068816941F400618161206891
:10356000816921F480618161206881692A6941EA69
:1035700002218161D2E7206801F09CFD2068C169C9
:1035800041F00801C1612068C16921F00401C161F5
:103590002068C1692A69114311E0206801F0BEFD6D
:1035A0002068C16941F40061C1612068C16921F4EA
:1035B0008061C1612068C1692A6941EA0221C16153
:1035C000ACE710B5040003D094F83D0010B107E05B
:1035D000012010BD002084F83C00204600F01EF8B9
:1035E000022084F83D00211D206801F087FC0120A5
:1035F00084F8460084F83E0084F83F0084F84000D8
:1036000084F8410084F8420084F8430084F84400C0
:1036100084F8450084F83D00002010BD70477047D5
:1036200010B50446022249B104290ED0082913D04E
:1036300094F84100012816D0012010BD94F83E00F6
:103640000128F9D184F83E200FE094F83F000128CA
:10365000F2D184F83F2008E094F840000128EBD133
:1036600084F8402001E084F841200122206801F024
:10367000ADFC16492068164A884201D0904203D119
:10368000436C43F4004343642068884213D0B0F194
:10369000804F10D00F4988420DD00F4988420AD080
:1036A0000E49884207D0904205D00D49884202D089
:1036B0000C49884204D1816801F00701062903D032
:1036C000016841F001010160002010BD00000140CF
:1036D000000401400004004000080040000C0040CD
:1036E0000040014000180040234A016891421ED169
:1036F00022498A88521C92B28A803C2A0FD3002227
:103700008A804B885B1C9BB24B803C2B07D34A8042
:103710000B885B1C9BB20B80182B00D30A80184AC5
:1037200001211170174A117809B1491E1170006802
:10373000154988421ED11649144A164B088832F89A
:1037400010201A80114AC83202EB800292ED000A62
:10375000114A82ED000A114A02EB800292ED000A42
:103760000F4A82ED000A6422801CB0FBF2F302FBD8
:1037700013000880704700000048014064040020E6
:1037800044040020450400200044014004000020BF
:103790006A040020540400205C0400205C02002025
:1037A000600400207047704770470000F8B501685A
:1037B00004460868CA684B6910F00F0F4FF0000507
:1037C00059D003F0010602F49077374365D0C10762
:1037D00005D0D10503D5616C41F001016164410759
:1037E00005D5D90703D0616C41F0020161648107FE
:1037F00005D5D90703D0616C41F00401616401076C
:1038000007D502F02001314303D0616C41F008017B
:103810006164616C00293AD0800604D5900602D517
:10382000204601F056FD20684069616CC0F38010AD
:10383000090700D460B3204601F016FD20684069F6
:10384000400621D52068143050E8001F21F04001C7
:1038500040E80012002AF5D1E06BA8B17249016579
:10386000E06BFEF71AFE002811D0E06B016D01B08D
:10387000BDE8F040084783060FD593060DD52046D6
:10388000BDE8F84001F025BD2046FFF78DFFF8BDEB
:103890002046FFF789FF6564F8BD266B2023012EC3
:1038A0007ED1C6067CD5D6067AD5086848680090D1
:1038B00048694FF0020640064DD5E26B106840683B
:1038C0004FF480770004000C3AD0A18D814237D9A3
:1038D000E085D069B8422DD020680C3050E8001F38
:1038E00021F4807140E80012002AF5D120681430DC
:1038F00050E8001F21F0010140E80012002AF5D134
:103900002068143050E8001F21F0400140E8001208
:10391000002AF5D184F84230256320680C3050E845
:10392000001F21F0100140E80012002AF5D1E06BE1
:10393000FEF76AFD6663A08DE18D401A81B206E054
:10394000A18D8142A8D1D069B842A5D16663204635
:10395000FFF729FFF8BDA08DE18D401A81B2E08DFF
:103960000028F7D00029F5D020680C3050E8002F4F
:1039700022F4907240E80027002FF5D1206814301F
:1039800050E8002F22F0010240E80027002FF5D177
:1039900084F84230256320680C3050E8002F00E0A6
:1039A00006E022F0100240E80023002BF3D1CDE71F
:1039B00005062BD5150629D594F841002128C9D133
:1039C000A068B0F5805F01D12069B0B1206A411CC8
:1039D0002162216800784860E08C401E0004000CE1
:1039E000E084B7D12068C16821F08001C1602068FF
:1039F000C16841F04001C160F8BD206A0088C0F391
:103A000008004860206A801C2062E5E74006F3D584
:103A10005006F1D5CA68204622F04002CA6084F8F8
:103A2000413000F007F9F8BD6D51000870B5040091
:103A300004D094F84100002510B106E0012070BDCB
:103A400084F84050204600F023F8242084F84100F8
:103A50002068C16821F40051C160204601F09AFC41
:103A60002068016921F4904101612068416921F0D9
:103A70002A0141612068C16841F40051C160656458
:103A8000202084F8410084F842006563002070BD66
:103A90002DE9F04186B0064614216846FCF7DFFFA9
:103AA0002F493068884258D12E480024016841F0DF
:103AB00010010160006800F01000059029481438DA
:103AC000016841F0010101600068694600F00100F1
:103AD00005904FF4C06000900220CDE9010403205E
:103AE0000390072004902048FEF7C2FE204D1F4897
:103AF0004FF00067E5E8020740204FF48068A5E832
:103B000011011B4845F81449AC61EC612C626C62F0
:103B1000FEF7A6FD08B1FEF704FCB563AE63144DD5
:103B20001248603578382860C5E90174C5E9034852
:103B30006C61AC61EC612C6228466C62FEF790FD12
:103B400008B1FEF7EEFBF563002211462520AE63B7
:103B5000FEF7FAFF2520FEF7E9FF06B0BDE8F08189
:103B6000001001404438024000000240B8640240A6
:103B7000B808002090F84230202B01D00220704776
:103B800021B11AB10023036301F08ABC0120704700
:103B9000704770472DE9F843044690F84100984675
:103BA00016460D46202802D00220BDE8F88385B1D4
:103BB0007EB100206064212084F84100FEF756FFAA
:103BC000A6848146E684A0682027B0F5805F02D0F5
:103BD00003E00120E9E7206910B12E4600250EE040
:103BE00000260CE08021204601F0AAFCA8B9C6B14D
:103BF00016F8010B21684860E08C401EE084E08CE0
:103C00004B464FF00002CDF800800028EAD14FF07B
:103C10004001204601F094FC40B184F8417003203B
:103C2000C3E735F8020BC0F30800E3E784F84170FE
:103C30000020BAE77047000070B5A2B018B3017851
:103C400009B301463F2201A8FCF730FF00208DF8A0
:103C500043001DA101A8FCF729FE06461AA1002079
:103C6000FCF724FE044686B17CB10A2221A9304625
:103C7000FCF7E4FD05462198B04202D00078002808
:103C800005D012A11AE01BA118E029A116E02046D8
:103C9000FCF736FE20B12046FCF732FE1D2801D984
:103CA00032A10BE0E8B2214602F0A4FCEBB23BA249
:103CB000402111A80094FCF7F5FB11A93F4801F041
:103CC00085FF22B070BD00002C0000004572726FAD
:103CD000723A20496E76616C69642049442E204D09
:103CE00075737420626520696E74656765722E0D48
:103CF0000A0000004572726F723A204D6973736951
:103D00006E6720617267756D656E74732E205573D2
:103D10006167653A204164645F4E65775F546F6404
:103D20006F203C69643E2C3C7461736B3E0D0A004D
:103D30004572726F723A20496E76616C69642066D2
:103D40006F726D61742E2055736167653A2041640E
:103D5000645F4E65775F546F646F203C69643E2CEE
:103D60003C7461736B3E0D0A000000004572726F77
:103D7000723A205461736B206C656E677468206DB5
:103D800075737420626520312D3239206368617249
:103D90006163746572732E0D0A00000041646465EE
:103DA0006420746F646F3A2049443D25642C20548C
:103DB00061736B3D25730D0A000000007008002040
:103DC00002F04EBC30B589B005000ED0287860B145
:103DD0000A2208A92846FCF731FD04460898A842A3
:103DE00001D0007818B109A10BE012A109E0E0B2FE
:103DF00002F050FCE3B21DA220216846FCF752FB02
:103E00006946204801F0E2FE09B030BD4572726F8C
:103E1000723A20496E76616C69642049442E204DC7
:103E200075737420626520696E74656765722E0D06
:103E30000A0000004572726F723A204D697373690F
:103E40006E6720494420617267756D656E742E201F
:103E500055736167653A2044656C5F5869645F54C7
:103E60006F646F203C69643E0D0A000044656C6518
:103E700074656420746F646F3A2049443D25640D75
:103E80000A0000007008002000F0A4BD00F0BABDD8
:103E900000F032BD00F030BD70B5A2B018B30178AB
:103EA00009B301463F2201A8FCF700FE00208DF86F
:103EB00043001BA101A8FCF7F9FC064618A100204D
:103EC000FCF7F4FC044686B17CB10A2221A93046F5
:103ED000FCF7B4FC05462198B04202D000780028D7
:103EE00005D010A116E019A114E027A112E0204688
:103EF000FCF706FD082801D231A10BE0E8B221460B
:103F000000F01EFDEBB23CA2402111A80094FCF78A
:103F1000C9FA11A9414801F059FE22B070BD000054
:103F20002C000000496E76616C69642074696D65CF
:103F30002076616C75652E204D7573742062652046
:103F4000696E74656765722E0D0A00004D697373A2
:103F5000696E6720706172616D65746572732E2081
:103F600055736167653A204C45445F466C617368E0
:103F7000696E675F536574203C74696D653E2C3CC7
:103F800074656D703E0D0A00496E76616C6964203F
:103F9000666F726D61742E2055736167653A204CAF
:103FA00045445F466C617368696E675F5365742052
:103FB0003C74696D653E2C3C74656D703E0D0A0065
:103FC00054656D7020737472696E6720746F6F2012
:103FD00073686F72742E204D696E696D756D20382F
:103FE00020636861726163746572732072657175B4
:103FF000697265642E0D0A00466C617368696E67AC
:10400000207365743A2054696D653D25642C2054F5
:10401000656D703D252E38730D0A00007008002074
:1040200000F0ACBC30B589B005000FD0287868B17D
:104030000A2208A92846FCF701FC04460898A84271
:1040400002D0B4F5FA7F03DD09A10CE00FA10AE06C
:10405000E0B200F0B1FC00F0A1FCE2B212A16846AF
:10406000FCF70CFA6946144801F0B0FD09B030BD08
:10407000496E76616C6964206272696768746E6506
:1040800073732076616C75650D0A00004D6973735A
:10409000696E67206272696768746E6573732076F3
:1040A000616C75650D0A00004C45442073657420F1
:1040B000746F2025640D0A00700800200649052051
:1040C000074A0870054801781170042101700549FC
:1040D0000120C870704700004504002046040020FD
:1040E000470400205604002006490520074A0870AE
:1040F000054801781170032101700549012088707D
:1041000070470000450400204604002047040020BA
:1041100056040020024901200870024908707047C7
:104120004604002056040020034902200870034979
:10413000012048707047000046040020560400200B
:104140001FB560B1017851B103A9009102AB01AA7A
:104150000FA1FCF7AFFA032803D010A10EE01AA1BB
:104160000CE0BDF80430172B07D8BDF808203B2A17
:1041700003D8BDF80C103B2904D91BA1234801F03A
:1041800025FD1FBD22480380428081801FBD0000A5
:104190002568753A2568753A256875004572726F0D
:1041A000723A20496E76616C69642074696D65208D
:1041B000666F726D61742E205573652048483A4DC4
:1041C0004D3A53530D0A00004572726F723A204DFA
:1041D000697373696E672074696D652061726775B4
:1041E0006D656E74730D0A004572726F723A2054D9
:1041F000696D652076616C756573206F7574206FCD
:10420000662072616E67650D0A000000700800206C
:1042100064040020FEE70000F0B50D4D00240746C1
:104220006B882A882146204600F09CFA2E886888F0
:1042300000214643084600F07BFA00F04DFB4FF0AA
:10424000D84002E0A0F88070641CB442FAD3F0BDFC
:1042500078090020F0B400271949F0222C242A25DF
:104260004FF4A0732B2638B101280FD04FF0010C6A
:10427000022813D003281AD08F710A804B800C813A
:104280004D818E810020F0BC00F014BA8F710A803D
:104290004B800C814D818E810320F4E781F806C0AC
:1042A0000B804A800C814D818E810520EBE781F8DF
:1042B00006C00B804A800C814D818E810620E2E78A
:1042C000780900202DE9FE4F161ACDE900104FF0B5
:1042D00000085D1A47464FF0FF30002E02DD4FF018
:1042E000010102E003D14FF000018B4602E083465A
:1042F000C6F10006002D02DD4FF0010002E003D1FF
:104300004FF00000824602E08246C5F10005AE4251
:1043100001DD344600E02C46601C4FF0000902909D
:1043200019E000980C9A81B2019880B200F07AF8F6
:10433000B0442F44A04504DD0198A8EB040858447C
:104340000190A74203DD00983F1B5044009009F103
:1043500001001FFA80F902998945E2DDBDE8FE8F70
:104360002DE9FF4F804600251446032082B00F46FA
:10437000A0EB440651E0381B81B208EB050A01901E
:104380001FFA8AF0059A00F04DF8781B009081B270
:1043900008EB04091FFA89F0059A00F043F807EBCF
:1043A000050B1FFA8BF11FFA89F0059A00F03AF815
:1043B00007EB04091FFA89F11FFA8AF0059A00F049
:1043C00031F8A8EB050A1FFA89F11FFA8AF0059A5D
:1043D00000F028F8A8EB04091FFA8BF11FFA89F006
:1043E000059A00F01FF80198059A81B21FFA8AF029
:1043F00000F018F80098059A81B21FFA89F000F0D1
:1044000011F86D1C002E03DA06EB8506B61D04E0DC
:10441000281B06EB8006641E0A36A542ABDD06B0FB
:10442000BDE8F08F30B50C4CA388A3F51345413D92
:1044300011D14FF0D843658923F87E5F050A5D806E
:10444000C0B25880A0891880080A5880C8B2588025
:10445000208918805A8030BD780900202DE9F0436A
:104460008146A2EB0900401C1E4685B20C464FF067
:10447000D848079F10E02146484600F059F900F05F
:104480002BFA0020414603E0A1F88070401C80B266
:10449000A842F9D3641CA4B2B442ECD9BDE8F083BD
:1044A00070B53220FEF77EF9002000F0F7F874496D
:1044B0004FF6FF754FF0D844888049F24132FF280B
:1044C00004D3A84202D0B0F5134F14D1D320A4F8DE
:1044D0007E0000F0D9F8888000F0D6F8888000F0DF
:1044E000D3F805EA0020888000F0CEF88B881843C6
:1044F000888090427ED180B290427CD1CF2024F837
:104500007E0F00206080C120608030206080ED2020
:1045100020806420608003206080122060808120E1
:104520006080E820208085206080102060807A20D4
:104530006080CB202080392060802C20608000208B
:1045400060803420608002206080F720208020205E
:104550006080EA202080002060806080C020208071
:104560001B206080C120208001206080C520208029
:10457000302060806080C7202080B7206080362097
:104580002080482060803A20208055206080B12023
:104590002080002060801A206080B62020800A20C1
:1045A0006080A2206080F220208000206080262091
:1045B000208001206080E02020800F2060802A2061
:1045C000608028206080082060800E2060800820A5
:1045D000608054206080A9206080432060800A2091
:1045E00060800F206080002060806080608060803C
:1045F000E12001E043E035E02080002060801520CC
:104600006080172060800720608011206080062075
:1046100060802B206080562060803C2060800520D8
:104620006080102060800F2060803F20608060806C
:104630000F2060802B20208000206080608001207F
:1046400060803F2060802A20208000206080608081
:104650006080EF206080112020807820FEF7A2F893
:10466000292020800220FFF7F5FD0122D103054813
:10467000FEF7F6F92846BDE87040FFF7CDBD70BDE6
:10468000780900200004024008B54FF0D840B0F887
:104690008000ADF80000BDF8000008BD10B54FF077
:1046A000D841A1F87E000120FEF77CF8BDE810405B
:1046B000FFF7EABF1D4B10B59A880021A2F51344FD
:1046C000413C32D1082812D2DFE800F0110406087C
:1046D0000A0C0E1080210AE0402108E0C02106E00B
:1046E000202104E0602102E0A02100E0E02141F06F
:1046F0000801362000F0FAF84FF0D840598920F828
:104700007E1F0021418041801988491E0A0A42808B
:10471000C9B2418099890180002141804180598836
:10472000491E0A0A4280C9B2418010BD78090020A2
:104730000B4B10B59A88A2F51344413C0ED14FF0B3
:10474000D8425C8922F87E4F040A5480C0B250805F
:1047500098891080080A5080C8B2508010BD0000AF
:104760007809002070B50244521E94B2CA18104B4A
:10477000521E95B29A88A2F51346413E16D14FF0CB
:10478000D8425E8922F87E6F060A5680C0B25080F9
:10479000200A5080E0B2508098891080080A50802A
:1047A000C8B25080280A5080E8B2508070BD000026
:1047B000780900202DE9FF4F1D460C468A46580710
:1047C00000D0012000EBD500690810FB01F0203A71
:1047D00000F0FF09D0B20026DFF894B0029043E069
:1047E0000C2D10D0102D13D0182D3FD10298214937
:1047F00000EBC00001EB80004FF00008875D380639
:104800000BD50D9A0DE002981B4900EB4000F1E733
:104810001A49029801EB0010EEE70E9828B940F60D
:10482000FF7221460098FFF7FDFD7806070E641C15
:10483000BBF80200A4B2A04218D9A4EB0A00A84217
:1048400009D100985446401C80B20090BBF800107B
:1048500081420BD906E008F1010000F0FF08B8F131
:10486000080FCCD3761CF6B24E45B9D3BDE8FF8F06
:10487000780900200C890008A87E00081C83000825
:104880002DE9FC4F044600F0FF0910190D46DDE943
:104890000D6B1FFA80F8581987B2DDF82CA013E0D1
:1048A000444503D305EB0A004C4685B2BD4210D205
:1048B0000C99CDE9001B534629462046FFF77AFFA5
:1048C00004EB5A0084B2761C3278A2F120005E28F4
:1048D000E6D9BDE8FC8F000003484FF0D8410089BD
:1048E000A1F87E0070470000780900204FF0D84200
:1048F00022F87E0F5180704770B50F4C6078052804
:1049000004D0217884F8301084F831000025257413
:10491000FEF7ACF8A0620848217C2030095C07480B
:10492000312906D000684FF4FA71416305206070A8
:1049300070BD00684563F9E70804002028080020DE
:10494000044B0022C3E906020A7203F12000FBF7C0
:10495000B3BF00000804002010B500210548FEF791
:104960005FFE04494FF4FA70096848630249012068
:10497000487010BD28080020080400200548417830
:10498000012906D0044A4FF4FA71126851630121DB
:10499000417070470804002028080020054841782D
:1049A000012901D0002903D10221417002F09ABCF3
:1049B0007047000008040020642800D964200449DE
:1049C00008704878022801D102F08CBC70470000C2
:1049D0000804002010B50A4C6078032806D004288B
:1049E00004D0217884F8301084F8310004206070FD
:1049F0004FF4FA70A080FEF739F8A06010BD0000F7
:104A00000804002009484178032901D004290BD16A
:104A100090F83010017090F831104170022901D0E7
:104A2000FFF7ACBF02F05EBC704700000804002036
:104A30002DE9F041204C214D4FF4FA76607803289F
:104A40001DD004281BD0052817D1FEF70FF8A16A46
:104A5000D4E90637421A0021D21A71EB07020CD3AF
:104A6000A062207C04F12002401C00F007002074AA
:104A7000805C312828681DD04663BDE8F081FDF7D1
:104A8000F5FFA168411A1429F7D3A06060780428C3
:104A9000A08804D0B04207D2401DA08006E008B133
:104AA000401FFAE7032000E0042060702968A08816
:104AB0004863E2E74163E0E708040020280800209B
:104AC0000D4808B5016841F48001016000680022CA
:104AD00000F48000009011463A20FEF735F83A20A5
:104AE000FEF724F8002211464620FEF72DF8BDE817
:104AF00008404620FEF71AB83038024010B58EB094
:104B00001C216846FBF7ABFF1C2107A8FBF7A7FF9A
:104B10001A484FF0204110220160194941600621D6
:104B200081600021C160C0E904128161C16113028A
:104B30000162C0E909139302C0E90B134163816369
:104B400041640F203C230090CDE9010303AC112305
:104B500084E80E0009240691CDE9074009AC08203D
:104B600084E80F000D9107AA69460448FEF7BEFAD3
:104B7000002801D0FDF7D5FB0EB010BD00070020C6
:104B8000040100A030B587B014216846FBF767FF29
:104B90002648016841F020010160016801F0200110
:104BA0000591016841F080010160016801F0800118
:104BB0000591016841F010010160016801F01001E8
:104BC0000591016841F002010160016801F00201F4
:104BD0000591016841F008010160016801F00801D8
:104BE0000591016841F001010160016801F00101D6
:104BF0000591016841F04001016000680C4D00F032
:104C000040004FF400440590002221462846FDF75D
:104C100027FF01210220CDE90210CDE900416946BC
:104C20002846FDF725FE07B030BD000030380240B1
:104C3000000402400C4810B50A49016044F29F117B
:104C40004160002140F6B732C0E902120161816182
:104C5000FEF792FA002803D0BDE81040FDF761BBD3
:104C600010BD000000440140500700200C4810B562
:104C70000A49016044F29F114160002142F20F7223
:104C8000C0E9021201618161FEF776FA002803D0C3
:104C9000BDE81040FDF745BB10BD000000480140D5
:104CA0009807002010B588B01C216846FBF7D7FE96
:104CB0001548144900240160A721C0E9011440F2FD
:104CC000F311C0E9031480218161FEF755FA08B1A0
:104CD000FDF727FB0C48FEF774FC08B1FDF721FB3C
:104CE0006020CDE90004029400226946064804943D
:104CF000FEF701FC08B1FDF714FB0348FEF7C2FB09
:104D000008B010BD001C0040E007002010B588B0BE
:104D10001C216846FBF7A3FE1548144900240160D6
:104D2000A721C0E9011440F2F311C0E90314802166
:104D30008161FEF721FA08B1FDF7F3FA0C48FEF79E
:104D400040FC08B1FDF7EDFA6020CDE900040294C3
:104D50000022694606480494FEF7CDFB08B1FDF732
:104D6000E0FA0348FEF78EFB08B010BD00200040BB
:104D7000280800200C4810B50A4901604FF4E131C1
:104D80004160002181600C22C160C0E90412816190
:104D9000C161FEF74BFE002803D0BDE81040FDF7CF
:104DA000C0BA10BD0010014070080020FEE7FEE709
:104DB00070470000F0B5184F91B00646002500BFBF
:104DC00005EB450007EB8004207A40B12068FBF733
:104DD00097FD024630462168FBF7B1FD03E03046FF
:104DE0002168FBF78FFE70B16D1C0F2DE8D33346A1
:104DF0000AA240216846FBF755FB69460D4800F0C2
:104E0000E5FE11B0F0BD207A18B12068FBF778FDFF
:104E1000304461688847F4E7D47D0008556E6B6EB6
:104E20006F776E20636F6D6D616E643A2025730D30
:104E30000A000000700800207047FDF71DBE00004A
:104E400030B593B030216846FBF709FE14210CA859
:104E5000FBF705FE1D480025016841F08051016007
:104E6000006800F0805011901948016841F48041B9
:104E700001600068022400F480401190012000903D
:104E8000000401908001CDE9064008AA0420A82171
:104E900082E813000B906846FDF772FF08B172B606
:104EA000FEE70CA90F2081E831004FF4A0500F90CD
:104EB0004FF48050109005210CA8FDF777FE0028D4
:104EC00001D072B6FEE713B030BD0000403802409A
:104ED000007000400248016841F4700101607047B1
:104EE00088ED00E00148FEF734BA00009807002082
:104EF0000148FEF72EBA000050070020F0B5026806
:104F0000274B284D284E294F294C4FF0804C984272
:104F100009D0604507D0A84205D0B04203D0B842BE
:104F200001D0A04204D122F0700E4A6842EA0E027B
:104F300098421BD0604519D0A84217D0B04215D076
:104F4000B84213D0A04211D01A4DA8420ED01A4D2B
:104F5000A8420BD0194DA84208D0194DA84205D03F
:104F6000184DA84202D0184DA84203D122F4407532
:104F7000CA682A434D6922F080022A438D68C562BF
:104F80000D688562984201D0A04201D10969016390
:104F9000016841F004010160012141610260F0BD3E
:104FA000000001400004004000080040000C0040E8
:104FB000000401400040014000440140004801401D
:104FC00000180040001C00400020004010B501F017
:104FD0001F030121046A99408C430462016A9A40CC
:104FE0001143016210BD0000F0B5036A026A22F0AD
:104FF0000102026242688469124E24F073050C6853
:105000002C4323F002058B682B430D4DA84201D0A1
:10501000B04205D123F00807CB683B4323F00403DB
:10502000A84201D0B04205D14D6922F44072154327
:105030008A692A4342608461496841630362F0BD22
:105040000000014000040140F0B5026A036A23F049
:1050500010030362436884690D6824F4E64444EA5B
:1050600005248D6822F0200242EA05120F4D104EF1
:10507000A84201D0B04206D1CF6822F0800242EAB5
:10508000071222F04002A84201D0B04207D14D6978
:1050900023F4406343EA85038D6943EA8503436053
:1050A0008461496881630262F0BD00000000014034
:1050B00000040140F0B5026A036A23F480730362BE
:1050C0004368C46922F4007224F073050C68124E20
:1050D0002C438D6842EA05220E4DA84201D0B04211
:1050E00006D1CF6822F4006242EA072222F48062ED
:1050F000A84201D0B04207D14D6923F4405343EA9E
:1051000005138D6943EA05134360C4614968C163AF
:105110000262F0BD000001400004014030B5046AA5
:10512000026A22F4805202624268C3690D6823F465
:10513000E64343EA05238D6824F4005444EA053429
:10514000084DA84202D0084DA84204D14D6922F46E
:10515000804242EA85124260C36149680164046288
:1051600030BD0000000001400004014010B5806B1C
:105170000021C185FEF718FB10BD70B5846B206857
:10518000406994F84110C0F3C0100025212904D1D2
:1051900018B1E584204600F08EF82068406994F844
:1051A0004210C0F38010222904D118B1E5852046B1
:1051B00000F05AF8606C40F0100060642046FEF782
:1051C000F3FA70BD10B50146806B096809684FF0AD
:1051D0000002C9052ED4C28501680C3151E8003F98
:1051E00023F4807341E80034002CF5D101681431B8
:1051F00051E8003F23F0010341E80034002CF5D1D1
:105200000168143151E8003F23F0400341E80034C5
:10521000002CF5D1202180F84210016B012909D121
:1052200001680C3151E8003F23F0100341E80034DD
:10523000002CF5D14263016B012902D0FEF7A8FCD6
:1052400010BD818DFEF7AFFA10BD10B5806B012146
:105250004163016B012902D0FEF79BFC10BD818DDB
:105260004908FEF7A0FA10BD01680C3151E8002F83
:1052700022F4907241E80023002BF5D1016814312B
:1052800051E8002F22F0010241E80023002BF5D164
:10529000016B012909D101680C3151E8002F22F07E
:1052A000100241E80023002BF5D1202180F84210A4
:1052B00000210163704701680C3151E8002F22F092
:1052C000C00241E80023002BF5D1202180F84110D5
:1052D000704708B590F84210222901D0022008BD7D
:1052E00082684FF480539A4201D1016921B1816AE9
:1052F0009A421BD04AB10AE00268816A5268C2F33E
:1053000008020A80816A891C08E0026972B1026899
:10531000526802F07F020A70816A491C8162C18D65
:10532000491E0904090CC18503D01BE002685268BC
:10533000F1E70168CA6822F02002CA600168CA6801
:1053400022F48072CA6001684A6922F001024A614F
:10535000202180F8421000214163026B012A03D012
:10536000FEF716FC002008BD016301680C3151E80E
:10537000002F22F0100241E80023002BF5D1016834
:105380000A68D20602D50A6849680091818DFEF745
:105390000AFAE7E770B5044600680169E26821F49B
:1053A0004051114301612169A068E26908436169C4
:1053B000114308432168CA6849F20C639A430243C7
:1053C000CA6020684169A26921F4407111434161BA
:1053D00031492068884202D03049884202D1FDF725
:1053E0008FFC01E0FDF77CFCE269002319216425B4
:1053F0003226B2F5004F626828D0A0FB0101930F5E
:105400009200FAF7C3FF0146B0FBF5F06FF0180207
:10541000504301EB800006EB0010B0FBF5F000F00C
:10542000F002B1FBF5F002EB0012B1FBF5F06FF00A
:105430001803584301EB800006EB0010B0FBF5F0B9
:1054400000F00F0021681044886070BDA0FB0101CE
:1054500092185B41FAF79AFF0146B0FBF5F00201A2
:10546000B1FBF5F06FF01803584301EB800006EB39
:10547000C000B0FBF5F000F0F80002EB4002B1FB19
:10548000F5F0584301EB800006EBC000B0FBF5F0EF
:1054900000F00700D6E700000010014000140140B2
:1054A00038B581620446828500201346606422225A
:1054B00084F84220E56B1F4AEA63E56B1E4A2A64C2
:1054C000E56B1E4AEA64E26B10650A462168E06BF0
:1054D000091DFDF72FF930B110206064202084F8F9
:1054E0004200012038BD20680168406800902069B2
:1054F00048B120680C3050E8001F41F4807140E84A
:105500000012002AF5D12068143050E8001F41F045
:10551000010140E80012002AF5D12068143050E85B
:10552000001F41F0400140E80012002AF5D10020A0
:1055300038BD0000C55100084B5200087B510008DF
:105540002DE9F843984617460D460446089E24E088
:10555000701C22D0FDF78AFAA0EB0800B0421AD8DE
:10556000CEB12068C168490717D5802D15D0402DD0
:1055700013D00168C94309070FD4016800254068AA
:1055800000902046FFF770FE0820606484F84050C9
:105590000120BDE8F8830320FBE72068006835EAB6
:1055A000000004D00020B842D2D00020F1E7012052
:1055B000F9E70000054841890089814201D3081AB2
:1055C00002E0C0F50070084480B27047700400200B
:1055D0002DE9F14FFE4841680098814273D1FD49A1
:1055E000FC4DFD4EFB4F0068CA14DFF8EC93DFF86A
:1055F000E4A3DFF8E4B39302F74C483D6036183774
:105600004FF0006809F11809AAF1300A0BF1780B84
:10561000884223D9EF49543926E0B84233D100BF3C
:105620004FF0200C0AE0DFF8ACC30CF1300C604501
:1056300030D1944602E09C4600E0C44611EA0C0FCB
:1056400070D0E44988425FD9A04205D0A84203D077
:10565000B04201D0B84237D1202252E0DE49A83111
:10566000884203D9DB495839096805E0DA494831ED
:105670008842DA49F8D94968A042D1D0A842CFD0AF
:10568000B042CDD0C9E74845D3D05045D1D05845D8
:10569000CFD0C8E7DFF840C30CF1300C6045CAD06A
:1056A000DFF830C3ACF1180C6045C4D0DFF828C374
:1056B0000CF1900C6045BED0DFF818C30CF1480C1B
:1056C0006045BAD1B7E74DE148451AD0504518D0EA
:1056D000584516D0BF493031884212D0BE493031CA
:1056E00088420BD0BB491839884207D0BA4990315B
:1056F000884203D0B7494831884201D11A4600E0B8
:105700004246B4484C382DE0B349A83188422BD9E1
:10571000A04205D0A84203D0B04201D0B84202D185
:1057200020221DE07DE048451AD0504518D058454C
:1057300016D0A8493031884212D0A749303188426A
:105740000BD0A4491839884207D0A3499031884228
:1057500003D0A0494831884201D11A4600E04246B0
:105760009C485038026056E09B494831884229D90C
:10577000A04205D0A84203D0B04201D0B84201D126
:1057800020221CE048451AD0504518D0584516D064
:1057900090493031884212D08F49303188420BD045
:1057A0008C491839884207D08B499031884203D000
:1057B00088494831884201D11A4600E0424687486C
:1057C000C26028E0A04205D0A84203D0B04201D078
:1057D000B84201D120221CE048451AD0504518D0CB
:1057E000584516D07B493031884212D07A49303141
:1057F00088420BD077491839884207D076499031D2
:10580000884203D073494831884201D11A4600E0EA
:105810004246724882606E49002081F80C0200F016
:10582000E5F90098DFF8AC814FF40072006893024C
:105830004FF0007E404522D96649543925E0B842F0
:1058400032D100BF4FF0080C0AE0DFF888C10CF13C
:10585000300C60452FD1944602E09C4600E0F446AF
:1058600011EA0C0F7ED040455ED9A04205D0A84277
:1058700003D0B04201D0B84236D1082251E0564997
:10588000A831884203D953495839096805E052497B
:10589000483188425149F8D94968A042D2D0A8423B
:1058A000D0D0B042CED0CAE74845D4D05045D2D0AF
:1058B0005845D0D0C9E7DFF820C10CF1300C604565
:1058C000CBD0DFF810C1ACF1180C6045C5D0DFF8C3
:1058D00008C10CF1900C6045BFD0DFF8F8C00CF1A6
:1058E000480C6045BBD1B8E748451AD0504518D0A0
:1058F000584516D037493031884212D036493031B8
:1059000088420BD033491839884207D03249903148
:10591000884203D02F494831884201D11A4600E01D
:1059200072462C484C382EE02B49A83188422CD99D
:10593000A04205D0A84203D0B04201D0B84201D164
:1059400008221EE048451CD050451AD0584518D0B2
:1059500020493031884214D01F49303188420DD05F
:105960001C4900E077E01839884207D01A49903185
:10597000884203D017494831884201D11A4600E0D5
:1059800072461448503802605DE01349483188423D
:1059900031D9A04205D0A84203D0B04201D0B842CC
:1059A00001D1082224E0484522D0504520D0584556
:1059B0001ED00849303188421AD007493031884218
:1059C00013D00449183988420FD00349903107E0B9
:1059D00070040020586402401060024000600240E1
:1059E000884202D01D49884201D11A4600E0724621
:1059F0001B48C26027E0A04205D0A84203D0B042B5
:105A000001D0B84201D108221BE0484519D05045C9
:105A100017D0584515D011491839884211D010496E
:105A2000403188420AD00D496039884206D00C497D
:105A3000A031884202D00949884201D11A4600E0CB
:105A40007246074882600749002081F80C02BDE8D1
:105A5000F84F00F0CBB8BDE8F88F0000A06402401A
:105A600000600240700400200B4982B00A68824244
:105A700010D100680268D2060CD502684068009018
:105A80004868006840684042C0F30800488102B09E
:105A900000F05CB802B070477004002070B5054695
:105AA0004FF48070C8610C460846FCF7D9FD2868A1
:105AB000C16841F03001C1602520FDF737F84FF48F
:105AC00004710648FAF7CBFF0448C0E90054EC63C0
:105AD000A563BDE8704000F089B8000070040020A4
